:060000000A128A110C280F
:10000800FE00030EF0000A08F1000A128A15E62D18
:100018000A128A110F28FA01FB0183120313EA015D
:10002800EB01EC01ED01EE01EF0183160313A001D2
:10003800A101A201A301A401A501A601A7018301B1
:100048000A128A15A82D8312031329088039B300D0
:100058002908AE002E07B900A81F332834283528F0
:1000680039143908031939283A284928390A031D47
:100078003E283F2847280030A9000030A80000305B
:10008800A7000030A600A81751280030A9000030AA
:10009800A8000030A7000030A6002D088039AE0067
:1000A8002E08B3062D08AE002E07B400AC1F5D283D
:1000B8005E285F28341434080319632864287328D9
:1000C800340A031D6828692871280030AD00003003
:1000D800AC000030AB000030AA00AC177B28003021
:1000E800AD000030AC000030AB000030AA0034088E
:1000F80003197F28802885283908031D8428852826
:100108008E280030A9000030A8000030A700003079
:10011800A6006B2B2608F2002C080A128A154A251D
:100128000A128A11730883120313BF007208BE00F3
:100138003E08AE00AF01B001B1013108B800300887
:10014800B7002F08B6002E08B5003F08AE00AF0173
:10015800B001B1013108BD003008BC002F08BB0058
:100168002E08BA002708F2002B080A128A154A2519
:100178000A128A11730883120313BF007208BE00A3
:100188003E08AE00AF01B001B1012E08B5072F0837
:1001980003110318013E0319D228B60730080311CA
:1001A8000318013E0319D928B707310803110318AA
:1001B800013E0319E028B8073F08AE00AF01B001BF
:1001C800B1012E08BA072F0803110318013E0319BD
:1001D800EE28BB07300803110318013E0319F52860
:1001E800BC07310803110318013E0319FC28BD0799
:1001F8002808F2002A080A128A154A250A128A11C2
:10020800730883120313BF007208BE003E08AE00D5
:10021800AF01B001B1012E08B5072F08031103186B
:10022800013E03191829B607300803110318013EC7
:1002380003191F29B707310803110318013E0319D1
:100248002629B8073F08AE00AF01B001B1012E085A
:10025800BA072F0803110318013E03193429BB07F5
:10026800300803110318013E03193B29BC07310864
:1002780003110318013E03194229BD070830AE00D7
:100288000310B50DB60DB70DB80DAE0B44292708F0
:10029800F2002A080A128A154A250A128A117308D6
:1002A80083120313BF007208BE003E08AE003F0869
:1002B800AF00B001B1012E08B5072F0803110318CC
:1002C800013E03196829B607300803110318013ED7
:1002D80003196F29B707310803110318013E0319E1
:1002E8007629B8072608F2002B080A128A154A252B
:1002F8000A128A11730883120313BF007208BE0022
:100308003E08AE003F08AF00B001B1012E08B507A6
:100318002F0803110318013E03199329B607300863
:1003280003110318013E03199A29B707310803116D
:100338000318013E0319A129B8070830AE000310BD
:10034800B50DB60DB70DB80DAE0BA3292608F200F2
:100358002A080A128A154A250A128A117308831272
:100368000313BF007208BE003E08AE003F08AF008E
:10037800B001B1012E08B5072F0803110318013E7B
:100388000319C729B607300803110318013E0319DA
:10039800CE29B707310803110318013E0319D529DF
:1003A800B8072708F2002C080A128A154A250A12EB
:1003B8008A11730883120313BF007208BE003E0837
:1003C800AE003F08AF00B001B1012E08BA072F08F0
:1003D80003110318013E0319F229BB073008031162
:1003E8000318013E0319F929BC0731080311031842
:1003F800013E0319002ABD072808F2002B080A123B
:100408008A154A250A128A11730883120313BF003A
:100418007208BE003E08AE003F08AF00B001B1014F
:100428002E08BA072F0803110318013E03191D2AC5
:10043800BB07300803110318013E0319242ABC071F
:10044800310803110318013E03192B2ABD07280898
:10045800F2002C080A128A154A250A128A11730812
:1004680083120313BF007208BE003E08AE003F08A7
:10047800AF00B001B10108300310AE0DAF0DB00DE3
:10048800B10DFF3E031D402A2E08BA072F0803119D
:100498000318013E0319512ABB073008031103183A
:1004A800013E0319582ABC07310803110318013EFD
:1004B80003195F2ABD073508AE003608AF003708B4
:1004C800B0003808B10018300310B10CB00CAF0CF4
:1004D800AE0CFF3E031D682A2E08BA072F08031129
:1004E8000318013E0319792ABB07300803110318C2
:1004F800013E0319802ABC07310803110318013E85
:100508000319872ABD070830AE000310B50DB60DD4
:10051800B70DB80DAE0B892A39083407AE00AF0104
:10052800AF0D2E08823EBE002F080318013EFF3E85
:10053800BF00BB2A0130AE000310BA0DBB0DBC0DC5
:10054800BD0DAE0BA02AB81FAA2AAB2AAC2A3A14B2
:100558000130AE000310B50DB60DB70DB80DAE0BDA
:10056800AE2AFF30BE070318BF0AFF30BF07BC1F03
:10057800BE2ABF2A9E2AB401B81FC32AC42AE02A69
:10058800FF303505AE00FF303605AF00FF303705C8
:10059800B0007F303805B100310830042F042E0434
:1005A8000319D72AD82ADB2AB401B40AE02A3A1C4C
:1005B800DE2ADF2AE02AD82A34080319E42AE52AA1
:1005C800162B0130BA07003003180130BB07003082
:1005D80003180130BC07003003180130BD073D1C6B
:1005E800F62AF72A162B3A08AE003B08AF003C085B
:1005F800B0003D08B1000130B200310DB10CB00CB3
:10060800AF0CAE0CB20B012B3108BD003008BC009A
:100618002F08BB002E08BA000130BE070318BF0A16
:100628000030BF073F08803AFF0080307F02031D7B
:100638001F2BFF303E02031C222B232B2E2B7F3037
:1006480083120313BD008030BC000030BB000030B3
:10065800BA005F2B831203133F08803AFF008030F3
:100668007F02031D392B01303E0203183C2B3D2B22
:10067800492B003083120313BD000030BC0000304A
:10068800BB000030BA00B3015F2B831203133E088E
:10069800B900FF30BA05FF30BB057F30BC0500301C
:1006A800BD05391C582B592B5A2BBC173908AE00DD
:1006B80003102E0CBD003308AE002E08BD043D0803
:1006C800A9003C08A8003B08A7003A08A6000800B3
:1006D8008312031343088039D0004308C800480731
:1006E800D200C21F782B792B7A2B52145208031987
:1006F8007E2B7F2B8F2B520A031D832B842B8C2B55
:100708000030C3000030C2000030C1000030C0001B
:10071800C217C301972B0030C3000030C20000305D
:10072800C1000030C00047088039D1005108500688
:1007380003199F2BA02BA12B50174708C800480767
:10074800D100C61FA82BA92BAA2B51145108031995
:10075800AE2BAF2BBF2B510A031DB32BB42BBC2BD5
:100768000030C7000030C6000030C5000030C400AB
:10077800C617C701C72B0030C7000030C6000030BD
:10078800C5000030C400520851020318CC2BCD2BF1
:10079800F32B501FD02BD12BD52B8030C800480805
:1007A800D0065208D3005108D2005308D10040089F
:1007B800D3004408C0005308C4004108D3004508CA
:1007C800C1005308C5004208D3004608C2005308B8
:1007D800C6004308D3004708C3005308C700D30125
:1007E8005108C800C9014908CB0052084802CA008C
:1007F800031CCB034B08803AFF0080307F02031DA7
:10080800072C1A304A02031C0A2C0B2C422C831288
:1008180003134308420441044004031D142C162CFE
:100828000130172C0030D3000030C3000030C20064
:100838000030C1000030C0005108D2004A2C531CBF
:10084800262C272C2E2C5308C8000310480C0138DE
:10085800D300302C0310D30C401C332C342C352CF3
:10086800D3170130C800430DC30CC20CC10CC00C17
:10087800C80B372C0130C8004808D207831203136D
:1008880051085202031C492C4A2C232C501B4D2C76
:100898004E2C972C5208031D522C532C5C2C0030E4
:1008A800C3000030C2000030C1000030C000C32DBA
:1008B8004408C007450803110318013E0319652CB5
:1008C800C107460803110318013E03196C2CC2071F
:1008D800470803110318013E0319732CC307431C6F
:1008E800762C772C4B2D531C7A2C7B2C822C53087E
:1008F800C8000310480C0138D300842C0310D30C13
:10090800401C872C882C892CD3170130C800430D34
:10091800C30CC20CC10CC00CC80B8B2C0130C80016
:100928004808D2074B2D4308803AFF004708803A11
:100938007F02031DA92C46084202031DA92C450865
:100948004102031DA92C440840020318AC2CAD2C0D
:10095800052DFF30C800FF30C900FF30CA00FF3046
:10096800CB004408CC004508CD004608CE00470817
:10097800CF004008CC024108031C410FC42CC52CF1
:10098800CD024208031C420FCA2CCB2CCE024308CE
:10099800031C430FD02CD12CCF024C08C8074D089C
:1009A80003184D0FD82CD92CC9074E0803184E0F21
:1009B800DE2CDF2CCA074F0803184F0ACB074B0859
:1009C800C3004A08C2004908C1004808C000803076
:1009D800C8004808D006D309D30A5308031DF52CCC
:1009E800F62C132D0130C007003003180130C10761
:1009F800003003180130C207003003180130C30764
:100A0800132D4408C0024508031C450FC1024608BF
:100A1800031C460FC2024708031C470FC3024308C2
:100A2800420441044004031D1A2D1B2D472D530871
:100A3800031D1F2D202D472D0030C3000030C2009C
:100A48000030C1000030C000C32D0130C8000310C1
:100A5800C00DC10DC20DC30DC80B2B2DD31F352DD5
:100A6800362D372D4014531C3A2D3B2D3E2D0314A3
:100A7800D30D402D0310D30D52080319442D452DD5
:100A8800472D0130D202C21F4A2D4B2D292DD101ED
:100A9800D31F4F2D502D5E2D53087F390319552D27
:100AA800562D592DD101D10A5E2D401C5C2D5D2D8E
:100AB8005E2D562D51080319622D632D972D013097
:100AC800C007003003180130C10700300318013097
:100AD800C207003003180130C307431C742D752D5D
:100AE800972D4008C8004108C9004208CA004308B9
:100AF800CB000130CC004B0DCB0CCA0CC90CC80C78
:100B0800CC0B7F2D4B08C3004A08C2004908C1001E
:100B18004808C000520A0319922D932D972D0130D1
:100B2800C8004808D207520A03199B2D9C2DA12DF5
:100B38005208031DA02DA12DAF2D0030C300003099
:100B4800C2000030C1000030C0005208031DAD2DA6
:100B5800AE2DAF2DD001521CB22DB32DB52DC2171D
:100B6800B92D7F30C8004808C2055208C8000310D4
:100B7800480CC300D01FC12DC22DC32DC3170800B8
:100B8800831603131E0883120313DE0006300310B6
:100B9800DE0CFF3E031DCB2D1E08DF00E001031015
:100BA800DF0DE00D0310DF0DE00D5E085F07E100CB
:100BB8000030031801306007E2006108EE006208A7
:100BC800EF006E08F2006F08F300F401F501003041
:100BD8000A128A1186260A128A11750883120313CB
:100BE800AD007408AC007308AB007208AA003E3070
:100BF800A900BD30A8007030A700A430A6000A12D2
:100C08008A1127200A128A11831203132908C700A0
:100C18002808C6002708C5002608C4004730C300B6
:100C28007E30C2000C30C1000030C0000A128A11A8
:100C38006C230A128A11831203134308D70042084F
:100C4800D6004108D5004008D4000A128A15FB26B0
:100C58000A128A11831203135508FB005408FA007C
:100C68007A08DE007B08DF00E001E1018130E20064
:100C7800EF30E3000130E4000030E5005E08E202F6
:100C88005F08031C5F0F492E4A2EE3026008031C0D
:100C9800600F4F2E502EE4026108031C610F552E81
:100CA800562EE5020830E600650DE50CE40CE30C71
:100CB800E20CE60B582EFF30620583160313A200E0
:100CC800003083120313630583160313A3008130D6
:100CD80083120313DE00EF30DF007A085E02E000C3
:100CE8007B08031C7B0A5F02E100FF306005831666
:100CF8000313A00000308312031361058316031346
:100D0800A100080083120313A000200803198D2EE8
:100D18008E2EA22EF51F912E922EA22E7209A200BF
:100D28007309A3007409A4007509A500A20A031990
:100D3800A30A0319A40A0319A50AAA2E7508A5006F
:100D48007408A4007308A3007208A200750874044C
:100D580073047204031DB12EB22EBB2E0030F500B1
:100D68000030F4000030F3000030F2003F2F9630DE
:100D7800A100CB2E0130F6007608A1070130031040
:100D8800A50CA40CA30CA20CFF3E031DC32EFE3021
:100D98002505031DD02ED12EBE2EED2E0130F600D6
:100DA8007608A1070130A207003003180130A30715
:100DB800003003180130A407003003180130A507DC
:100DC80001300310A50CA40CA30CA20CFF3E031DBC
:100DD800E52EFF302505031DF22EF32ED22EFF2E11
:100DE8000130A1020130F6000310A20DA30DA40DDD
:100DF800A50DF60BF82EA41B022F032F092F023086
:100E080021020318082F092FF42E21180C2F0D2F5B
:100E1800152FFF30A205FF30A3057F30A405FF3052
:100E2800A5050310A10C2108F600F701F801F90146
:100E380018300310F60DF70DF80DF90DFF3E031DE0
:100E48001D2F7608A2047708A3047808A40479085B
:100E5800A50420080319312F322F372FF51F352FFE
:100E6800362F372FA5172508F5002408F400230886
:100E7800F3002208F2000800C330831203139F0511
:100E8800073083120313E700E70B482F0000831293
:100E980003139F149F18512F522F4E2F0C130A1211
:100EA8008A1573270A128A11831203136A08E70046
:100EB800E70E17086706CF396706970083160313EE
:100EC80026088312031395001F08C33904389F00AE
:100ED800073083120313E700E70B702F000083121B
:100EE80003139F149F18792F7A2F762F0C130A1249
:100EF8008A1573270A128A11831203136A080139A3
:100F0800E700E70E1D086706EF3967069D006B08C6
:100F1800E8006A08E7000310E80CE70C67080139E5
:100F2800E900E90EE90D1D086906DF3969069D002B
:100F3800831603132608831203139B001F08C33963
:100F480008389F00073083120313E700E70BAA2F26
:100F58000000831203139F149F18B32FB42FB02FD0
:100F68000C130A128A1584260A128A110730831272
:100F78000313E700E70BBE2F0000831203131F08BB
:100F8800C3390C389F00073083120313E700E70BBF
:100F9800CB2F0000831203139F149F18D42FD52F33
:100FA800D12F0C130A128A11C4250A128A1107308C
:100FB80083120313E700E70BDF2F000008008316F6
:100FC80003130715FE3092000C30831203139700A9
:100FD8008C100330920412158C1CF32FF42FF02F71
:080FE800831603130711080032
:101A12008316031789018316031386018701880140
:101A2200831203138701880108008B178B160B1191
:101A320083160313811281110108F83903388100DA
:101A42008312031381010800831603138714FE30E7
:101A520092000C30831203139D008C108C1C322DCB
:101A6200332D2F2D8316031387100800CF308312D6
:101A720003139005901190101014EF308F008230F4
:101A82008E000B17831603130C14831203130C100E
:101A9200080083120313A400A001A1017208F4003C
:101AA200F5017408A2007508A300241C592D5A2DB3
:101AB200602D2208A0070318A10A2308A1070130FC
:101AC2000310A20DA30DFF3E031D612D0310A40CF4
:101AD2002408031D6D2D6E2D562D2108F3002008BC
:101AE200F200080083120313051083160313051472
:101AF2008316031708148312031385108316031326
:101B02008514831603178814831203130511831691
:101B12000313051583160317081583120313851182
:101B2200831603138515831603178815831203136F
:101B32009F131F17831603139F121F129F138312E3
:101B420003131F140830F200F20BA52D08000A122D
:101B52008A1509250A128A1504300A128A152526C1
:101B62000A128A150A128A1573250A128A150A128E
:101B72008A11E3270A128A150A128A1525250A12E2
:101B82008A150A128A1516250A128A150A128A1548
:101B920037250A128A15F13083160313A400003088
:101BA200A500F130A4000030A5000A128A114027D6
:101BB2000A128A15523083160313A800A80BDF2DD0
:101BC2000000D62D0A128A110C280B1DE92DEA2DD0
:101BD200002E83120313871DEF2DF02DF82D83168F
:101BE200031324098312031381008711FF2D831627
:101BF2000313240883120313810087150B11831228
:101C020003130C1C052E062E1E2E071C092E0A2E4F
:101C1200182E831603132208831203138F008316D0
:101C220003132008831203138E0007101D2E7B0856
:101C32008F007A088E0007140C1071088A00700E4B
:101C42008300FE0E7E0E0900F20007307206031DAD
:101C52002B2E2C2E302E7030831603138F04063059
:101C62007206031D352E362E3C2E831603130F08E3
:101C72008F3960388F0005307206031D412E422EC7
:101C8200482E831603130F088F3950388F00043003
:101C92007206031D4D2E4E2E542E831603130F086B
:101CA2008F3940388F0003307206031D592E5A2E89
:101CB200602E831603130F088F3930388F000230DD
:101CC2007206031D652E662E6C2E831603130F08F3
:101CD2008F3920388F007203031D702E712E772EDC
:101CE200831603130F088F3910388F007208031DF3
:101CF2007B2E7C2E802E8F30831603138F05831646
:101D020003130F140800831603131E088312031310
:101D1200DE0006300310DE0CFF3E031D8B2E1E0874
:101D2200DF00E0010310DF0DE00D0310DF0DE00D19
:101D32005E085F07E1000030031801306007E2002F
:101D42006108EE006208EF006E08F2006F08F3000F
:101D5200F401F50100300A128A1186260A128A1548
:101D6200750883120313AD007408AC007308AB004E
:101D72007208AA003C30A9008B30A8004330A700AB
:101D82009630A6000A128A1127200A128A15831297
:101D920003132908C7002808C6002708C50026081B
:101DA200C4004330C3006230C2000030C1000030C2
:101DB200C0000A128A116C230A128A1583120313B5
:101DC2004308D7004208D6004108D5004008D40095
:101DD2000A128A15FB260A128A1583120313550862
:101DE20083160313A50083120313540883160313E7
:101DF200A4000800031083120313560D570DDD00D3
:101E02005D08031D052F062F0F2F0030D70000306D
:101E1200D6000030D5000030D400722F5408D8000C
:101E22005508D9005608DA005708DB001F300310A6
:101E3200DB0CDA0CD90CD80CFF3E031D182F580806
:101E4200DC00D617FF30D405FF30D505FF30D605AC
:101E52000030D7059630DD02DD1F302F312F4B2F9A
:101E62005D08803A973E0318372F382F392F062FF7
:101E720001300310D70CD60CD50CD40CFF3E031D39
:101E82003A2F0130D8005808DD07031D492F4A2F89
:101E9200392F622F20305D02031C502F512F5D2FEE
:101EA200062F0130D8000310D40DD50DD60DD70D55
:101EB200D80B542F0130DD025D08031D612F622F04
:101EC200522F5C080319662F672F722FD409D50988
:101ED200D609D709D40A0319D50A0319D60A031950
:101EE200D70A0800831603131E0883120313DE00A9
:101EF20006300310DE0CFF3E031D7A2F1E08DF00A2
:101F0200E0010310DF0DE00D0310DF0DE00D5E08B0
:101F12005F07E1000030031801306007E20061084A
:101F2200EE006208EF006E08F2006F08F300F401A1
:101F3200F50100300A128A1186260A128A157508DE
:101F420083120313AD007408AC007308AB0072086F
:101F5200AA003D30A9007930A800DB30A700233069
:101F6200A6000A128A1127200A128A158312031365
:101F72002908C7002808C6002708C5002608C4008B
:101F82004230C3007C30C2000030C1000030C000CB
:101F92000A128A116C230A128A1583120313430848
:101FA200D7004208D6004108D5004008D4000A12E2
:101FB2008A15FB260A128A15831203135508ED00AF
:101FC2005408EC0003306C05EA0000306D05EB00AC
:101FD2006D08DF006C08DE000310DF0CDE0C03105E
:101FE200DF0CDE0CFF305E0583160313A600003003
:0E1FF200831203135F0583160313A700080074
:08400000FF3FFF3FFF3FFF3FC0
:04400E00D420FF3F7C
:00000001FF
