:060000000A128A110C280F
:10000800FE00030EF2000A08F3000A128A114428BF
:100018000A128A110F2883010A128A1113280A1258
:100028008A1183200A128A1107300A128A1168205D
:100038000A128A110A128A11AF200A128A110A12A8
:100048008A11BF200A128A11831203138C1E2D28CD
:100058002E2833280A128A119B200A128A1102308C
:10006800F7000430F600BA30F500F50B3928F60B26
:100078003928F70B3928000028280A128A110C2879
:100088000B1C47284828612883120313861B4D2818
:100098004E2860288230F100DD30F000F00B522845
:1000A800F10B522857288312031385185C285D2802
:1000B8005F288514602885100B1073088A00720E5B
:1000C8008300FE0E7E0E0900F40007307406031D3F
:1000D8006E286F2873287030831603138F04063038
:1000E8007406031D782879287F28831603130F08C0
:1000F8008F3960388F00831603130F140800831696
:1001080003178801890183160313850183120313DA
:100118008501C030831603138600831203138601FA
:1001280083160313880183120313880108003130F2
:10013800831203131A06031DA228A328A428051452
:1001480032301A06031DA928AA28AB2805101A0858
:1001580099008C1208000C308316031399001812AA
:100168008312031398178316031398168312031325
:100178000C12181608008B178B150B10C03083163D
:0C01880003139600C0309500811308009E
:08400000FF3FFF3FFF3FFF3FC0
:04400E00D420FF3F7C
:00000001FF
