:060000000A128A110C280F
:10000800FE00030EF9000A08FA000A128A15232EC8
:100018000A128A110F28FB01FC0183160313A001A1
:10002800A101A201A301A401A501A601A701A8019C
:10003800A90183010A128A11C02F83120313310800
:100048008039BB003108B6003607C100B01F2D2823
:100058002E282F284114410803193328342843280F
:10006800410A031D3828392841280030B1000030E2
:10007800B0000030AF000030AE00B0174B280030A1
:10008800B1000030B0000030AF000030AE003508DD
:100098008039B6003608BB063508B6003607C000FA
:1000A800B41F5728582859284014400803195D28B8
:1000B8005E286D28400A031D622863286B280030DB
:1000C800B5000030B4000030B3000030B200B417FF
:1000D80075280030B5000030B4000030B30000309F
:1000E800B2004008031979287A287F284108031D9F
:1000F8007E287F2888280030B1000030B00000300A
:10010800AF000030AE00652B2E08A00034080A129C
:100118008A155A250A128A11831203132108C70067
:100128002008C6004608B600B701B801B901390869
:10013800BF003808BE003708BD003608BC004708B5
:10014800B600B701B801B9013908C5003808C400BC
:100158003708C3003608C2002F08A00033080A1267
:100168008A155A250A128A11831203132108C70017
:100178002008C6004608B600B701B801B90136081C
:10018800BC07370803110318013E0319CC28BD0723
:10019800380803110318013E0319D328BE0739088C
:1001A80003110318013E0319DA28BF074708B600F0
:1001B800B701B801B9013608C20737080311031897
:1001C800013E0319E828C307380803110318013E44
:1001D8000319EF28C407390803110318013E03194E
:1001E800F628C5073008A00032080A128A155A25D1
:1001F8000A128A11831203132108C7002008C600B7
:100208004608B600B701B801B9013608BC07370877
:1002180003110318013E03191229BD0738080311F9
:100228000318013E03191929BE07390803110318D9
:10023800013E03192029BF074708B600B701B801D6
:10024800B9013608C207370803110318013E03191C
:100258002E29C307380803110318013E031935294D
:10026800C407390803110318013E03193C29C507BF
:100278000830B6000310BC0DBD0DBE0DBF0DB60B8A
:100288003E292F08A00032080A128A155A250A1298
:100298008A11831203132108C7002008C6004608E4
:1002A800B6004708B700B801B9013608BC073708D7
:1002B80003110318013E03196229BD073808031109
:1002C8000318013E03196929BE07390803110318E9
:1002D800013E03197029BF072E08A00033080A122F
:1002E8008A155A250A128A11831203132108C70096
:1002F8002008C6004608B6004708B700B801B9018B
:100308003608BC07370803110318013E03198D2965
:10031800BD07380803110318013E03199429BE07C5
:10032800390803110318013E03199B29BF07083038
:10033800B6000310BC0DBD0DBE0DBF0DB60B9D293B
:100348002E08A00032080A128A155A250A128A11A4
:10035800831203132108C7002008C6004608B60008
:100368004708B700B801B9013608BC0737080311B8
:100378000318013E0319C129BD07380803110318E2
:10038800013E0319C829BE07390803110318013EA5
:100398000319CF29BF072F08A00034080A128A15AD
:1003A8005A250A128A11831203132108C70020084C
:1003B800C6004608B6004708B700B801B9013608B4
:1003C800C207370803110318013E0319EC29C307B4
:1003D800380803110318013E0319F329C407390823
:1003E80003110318013E0319FA29C5073008A000B4
:1003F80033080A128A155A250A128A11831203131E
:100408002108C7002008C6004608B6004708B700FC
:10041800B801B9013608C207370803110318013EAD
:100428000319172AC307380803110318013E0319D3
:100438001E2AC407390803110318013E0319252A87
:10044800C5073008A00034080A128A155A250A126E
:100458008A11831203132108C7002008C600460822
:10046800B6004708B700B801B90108300310B60D47
:10047800B70DB80DB90DFF3E031D3A2A3608C2075D
:10048800370803110318013E03194B2AC30738081C
:1004980003110318013E0319522AC407390803112E
:1004A8000318013E0319592AC5073C08B6003D0840
:1004B800B7003E08B8003F08B90018300310B90C5F
:1004C800B80CB70CB60CFF3E031D622A3608C207EB
:1004D800370803110318013E0319732AC3073808A4
:1004E80003110318013E03197A2AC40739080311B6
:1004F8000318013E0319812AC5070830B600031006
:10050800BC0DBD0DBE0DBF0DB60B832A41084007BB
:10051800B600B701B70D3608823EC6003708031883
:10052800013EFF3EC700B52A0130B6000310C20DD8
:10053800C30DC40DC50DB60B9A2ABF1FA42AA52A40
:10054800A62A42140130B6000310BC0DBD0DBE0D25
:10055800BF0DB60BA82AFF30C6070318C70AFF301D
:10056800C707C41FB82AB92A982AC001BF1FBD2AC5
:10057800BE2ADA2AFF303C05B600FF303D05B70039
:10058800FF303E05B8007F303F05B9003908380410
:10059800370436040319D12AD22AD52AC001C00A41
:1005A800DA2A421CD82AD92ADA2AD22A4008031978
:1005B800DE2ADF2A102B0130C20700300318013071
:1005C800C307003003180130C40700300318013096
:1005D800C507451CF02AF12A102B4208B60043082B
:1005E800B7004408B8004508B9000130BA00390D11
:1005F800B90CB80CB70CB60CBA0BFB2A3908C500F5
:100608003808C4003708C3003608C2000130C607DE
:100618000318C70A0030C7074708803AFF00803030
:100628007F02031D192BFF304602031C1C2B1D2BB8
:10063800282B7F3083120313C5008030C40000309C
:10064800C3000030C200592B831203134708803AB5
:10065800FF0080307F02031D332B01304602031850
:10066800362B372B432B003083120313C500003081
:10067800C4000030C3000030C200BB01592B8312F4
:1006880003134608C100FF30C205FF30C3057F30A1
:10069800C4050030C505411C522B532B542BC417DD
:1006A8004108B6000310360CC5003B08B6003608F2
:1006B800C5044508B1004408B0004308AF0042082B
:1006C800AE000800831203134B088039D8004B088A
:1006D800D0005007DA00CA1F722B732B742B5A14E0
:1006E8005A080319782B792B892B5A0A031D7D2B5D
:1006F8007E2B862B0030CB000030CA000030C900AA
:100708000030C800CA17CB01912B0030CB00003055
:10071800CA000030C9000030C8004F088039D9002D
:10072800590858060319992B9A2B9B2B58174F08D1
:10073800D0005007D900CE1FA22BA32BA42B5914ED
:1007480059080319A82BA92BB92B590A031DAD2B3E
:10075800AE2BB62B0030CF000030CE000030CD00DD
:100768000030CC00CE17CF01C12B0030CF000030B5
:10077800CE000030CD000030CC005A0859020318D2
:10078800C62BC72BED2B581FCA2BCB2BCF2B80305A
:10079800D0005008D8065A08DB005908DA005B0870
:1007A800D9004808DB004C08C8005B08CC004908A1
:1007B800DB004D08C9005B08CD004A08DB004E0885
:1007C800CA005B08CE004B08DB004F08CB005B0873
:1007D800CF00DB015908D000D1015108D3005A08D5
:1007E8005002D200031CD3035308803AFF00803024
:1007F8007F02031D012C1A305202031C042C052C05
:100808003C2C831203134B084A0449044804031D73
:100818000E2C102C0130112C0030DB000030CB00E6
:100828000030CA000030C9000030C8005908DA009A
:10083800442C5B1C202C212C282C5B08D000031096
:10084800500C0138DB002A2C0310DB0C481C2D2C23
:100858002E2C2F2CDB170130D0004B0DCB0CCA0CE3
:10086800C90CC80CD00B312C0130D0005008DA0765
:100878008312031359085A02031C432C442C1D2CC1
:10088800581B472C482C912C5A08031D4C2C4D2CD6
:10089800562C0030CB000030CA000030C9000030B0
:1008A800C800BD2D4C08C8074D0803110318013EA8
:1008B80003195F2CC9074E0803110318013E0319D9
:1008C800662CCA074F0803110318013E03196D2C43
:1008D800CB074B1C702C712C452D5B1C742C752C74
:1008E8007C2C5B08D0000310500C0138DB007E2CF8
:1008F8000310DB0C481C812C822C832CDB17013065
:10090800D0004B0DCB0CCA0CC90CC80CD00B852CD5
:100918000130D0005008DA07452D4B08803AFF0017
:100928004F08803A7F02031DA32C4E084A02031D7C
:10093800A32C4D084902031DA32C4C084802031898
:10094800A62CA72CFF2CFF30D000FF30D100FF30A1
:10095800D200FF30D3004C08D4004D08D5004E0813
:10096800D6004F08D7004808D4024908031C490F8D
:10097800BE2CBF2CD5024A08031C4A0FC42CC52C18
:10098800D6024B08031C4B0FCA2CCB2CD702540899
:10099800D00755080318550FD22CD32CD107560869
:1009A8000318560FD82CD92CD20757080318570A02
:1009B800D3075308CB005208CA005108C900500891
:1009C800C8008030D0005008D806DB09DB0A5B0875
:1009D800031DEF2CF02C0D2D0130C8070030031833
:1009E8000130C907003003180130CA070030031866
:1009F8000130CB070D2D4C08C8024D08031C4D0FC4
:100A0800C9024E08031C4E0FCA024F08031C4F0FA1
:100A1800CB024B084A0449044804031D142D152D24
:100A2800412D5B08031D192D1A2D412D0030CB00D7
:100A38000030CA000030C9000030C800BD2D0130A8
:100A4800D0000310C80DC90DCA0DCB0DD00B252D34
:100A5800DB1F2F2D302D312D48145B1C342D352DE7
:100A6800382D0314DB0D3A2D0310DB0D5A0803193A
:100A78003E2D3F2D412D0130DA02CA1F442D452D50
:100A8800232DD901DB1F492D4A2D582D5B087F39AD
:100A980003194F2D502D532DD901D90A582D481C13
:100AA800562D572D582D502D590803195C2D5D2DA5
:100AB800912D0130C807003003180130C9070030F4
:100AC80003180130CA07003003180130CB074B1C4C
:100AD8006E2D6F2D912D4808D0004908D1004A0885
:100AE800D2004B08D3000130D400530DD30CD20CE4
:100AF800D10CD00CD40B792D5308CB005208CA0066
:100B08005108C9005008C8005A0A03198C2D8D2DA8
:100B1800912D0130D0005008DA075A0A0319952D93
:100B2800962D9B2D5A08031D9A2D9B2DA92D00301B
:100B3800CB000030CA000030C9000030C8005A0895
:100B4800031DA72DA82DA92DD8015A1CAC2DAD2DFC
:100B5800AF2DCA17B32D7F30D0005008CA055A08E8
:100B6800D0000310500CCB00D81FBB2DBC2DBD2DC1
:100B7800CB17080083120313A80028080319C52DF2
:100B8800C62DDA2DA31FC92DCA2DDA2D2009AA00DA
:100B98002109AB002209AC002309AD00AA0A0319F8
:100BA800AB0A0319AC0A0319AD0AE22D2308AD00FC
:100BB8002208AC002108AB002008AA002308220460
:100BC80021042004031DE92DEA2DF32D0030A30094
:100BD8000030A2000030A1000030A000772E96302F
:100BE800A900032E0130A4002408A907013003102E
:100BF800AD0CAC0CAB0CAA0CFF3E031DFB2DFE305C
:100C08002D05031D082E092EF62D252E0130A400D2
:100C18002408A9070130AA07003003180130AB07E0
:100C2800003003180130AC07003003180130AD075D
:100C380001300310AD0CAC0CAB0CAA0CFF3E031D2D
:100C48001D2EFF302D05031D2A2E2B2E0A2E372E82
:100C58000130A9020130A4000310AA0DAB0DAC0DA0
:100C6800AD0DA40B302EAC1B3A2E3B2E412E02307C
:100C780029020318402E412E2C2E2918442E452EC9
:100C88004D2EFF30AA05FF30AB057F30AC05FF3095
:100C9800AD050310A90C2908A400A501A601A70108
:100CA80018300310A40DA50DA60DA70DFF3E031DBA
:100CB800552E2408AA042508AB042608AC042708E6
:100CC800AD0428080319692E6A2E6F2EA31F6D2EF6
:100CD8006E2E6F2EAD172D08A3002C08A2002B082E
:100CE800A1002A08A0000800C330831203139F053F
:100CF800073083120313EB00EB0B802E00008312E6
:100D080003139F149F18892E8A2E862E0C130A12FD
:100D18008A1127270A128A118316031326088312B9
:100D28000313EB00EB0E17086B06CF396B06970021
:100D38008316031324088312031395001F08C3396D
:100D480004389F00073083120313EB00EB0BAA2E25
:100D58000000831203139F149F18B32EB42EB02ED5
:100D68000C130A128A1127270A128A1183160313F1
:100D78002608013983120313EB00EB0E1D086B06DE
:100D8800EF396B069D00831603132708831203139C
:100D9800EC0083160313260883120313EB000310D9
:100DA800EC0CEB0C6B080139ED00ED0EED0D1D0898
:100DB8006D06DF396D069D00831603132408831220
:100DC80003139B001F08C33908389F00073083129C
:100DD8000313EB00EB0BEE2E0000831203139F149A
:100DE8009F18F72EF82EF42E0C130A128A15962641
:100DF8000A128A11073083120313EB00EB0B022F40
:100E08000000831203131F08C3390C389F000730F2
:100E180083120313EB00EB0B0F2F00008312031355
:100E28009F149F18182F192F152F0C130A128A15A3
:100E380085270A128A11073083120313EB00EB0B84
:100E4800232F00000800831603131E0883120313C0
:100E5800E60006300310E60CFF3E031D2E2F1E0889
:100E6800E700E8010310E70DE80D0310E70DE80DB2
:100E780066086707E9000030031801306807EA00D0
:100E88006908FB006A08FC007B08A0007C08A10038
:100E9800A201A30100300A128A11BE250A128A1182
:100EA800831203132308B5002208B4002108B300F5
:100EB8002008B2003D30B1007930B000DB30AF001F
:100EC8002330AE000A128A1121200A128A118312D5
:100ED80003133108CF003008CE002F08CD002E08AC
:100EE800CC004230CB007C30CA000030C900003052
:100EF800C8000A128A1166230A128A118312031380
:100F08004B08DF004A08DE004908DD004808DC001D
:100F18000A128A150D270A128A11831203135D0813
:100F280083160313A900831203135C0883160313A3
:100F3800A80003302805A60000302905A7002908C5
:100F480083120313E700831603132808831203137D
:100F5800E6000310E70CE60C0310E70CE60CFF3084
:100F6800660583160313A400003083120313670574
:100F780083160313A50008000A128A1504250A120D
:100F88008A1104300A128A15BB250A128A110A121C
:100F98008A1583250A128A110A128A1545250A120A
:100FA8008A110A128A1520250A128A110A128A152C
:100FB80011250A128A110A128A1532250A128A1173
:100FC800F13083160313A2000030A3008330A00081
:100FD800FF30A1000A128A1178260A128A115230AB
:100FE80083120313EE00EE0BF72F0000EE2F0A1208
:040FF8008A110C2826
:101A0800831603178901831603138601870188014A
:101A1800831203138701880108008B178B160B119B
:101A280083160313811281110108F83903388100E4
:101A38008312031381010800831603138714FE30F1
:101A480092000C30831203139D008C108C1C2D2DDA
:101A58002E2D2A2D8316031387100800CF308312EA
:101A680003139005901190101014EF308F008230FE
:101A78008E000B17831603130C14831203130C1018
:101A88000800831603130715FE3092000C308312EA
:101A9800031397008C100330920412158C1C552DDB
:101AA800562D522D831603130711080083120313B2
:101AB800A800A401A5012008A200A3012208A600ED
:101AC8002308A700281C692D6A2D702D2608A40755
:101AD8000318A50A2708A50701300310A60DA70DAE
:101AE800FF3E031D712D0310A80C2808031D7D2D32
:101AF8007E2D662D2508A1002408A0000800831269
:101B0800031305108316031305148316031708140B
:101B18008312031385108316031385148316031782
:101B280088148312031305118316031305158316EE
:101B380003170815831203138511831603138515DC
:101B4800831603178815831203139F131F17831611
:101B580003139F121F129F13831203131F140730BE
:101B680083120313A000A00BB72D000008008312F6
:101B78000313A00007302006031DC32DC42DC82D54
:101B88007030831603138F04063083122006031D5A
:101B9800CE2DCF2DD52D831603130F088F3960381E
:101BA8008F00053083122006031DDB2DDC2DE22D6E
:101BB800831603130F088F3950388F0004308312AF
:101BC8002006031DE82DE92DEF2D831603130F08BA
:101BD8008F3940388F00033083122006031DF52DFE
:101BE800F62DFC2D831603130F088F3930388F001C
:101BF800023083122006031D022E032E092E83169F
:101C080003130F088F3920388F0083122003031D18
:101C18000E2E0F2E152E831603130F088F3910382A
:101C28008F0083122008031D1A2E1B2E1F2E8F30A3
:101C3800831603138F05831603130F1408000B1D57
:101C4800262E272E3D2E83120313871D2C2E2D2E74
:101C5800352E83160313220983120313810087117B
:101C68003C2E831603132208831203138100871561
:101C78000B11831203130C1C422E432E8F2E071CAC
:101C8800462E472E812E831603132008F0002108C4
:101C9800F100F201F3018130F400EF30F50001307A
:101CA800F6000030F7007008F4027108031C710F89
:101CB8005E2E5F2EF5027208031C720F642E652ECD
:101CC800F6027308031C730F6A2E6B2EF702083096
:101CD800F800770DF70CF60CF50CF40CF80B6D2EDC
:101CE8007408831203138F00831603132008813CA2
:101CF800831203138E0007108E2E831603132108F8
:101D0800831203138F00831603132008831203130F
:101D18008E0007140C107A088A00790E8300FE0ED4
:101D28007E0E0900831603131E0883120313E600B0
:101D380006300310E60CFF3E031D9D2E1E08E7002B
:101D4800E8010310E70DE80D0310E70DE80D66083C
:101D58006707E9000030031801306807EA006908DE
:101D6800FB006A08FC007B08A0007C08A100A20117
:101D7800A30100300A128A11BE250A128A1583129D
:101D880003132308B5002208B4002108B300200873
:101D9800B2003C30B1008B30B0004330AF00963019
:101DA800AE000A128A1121200A128A15831203131F
:101DB8003108CF003008CE002F08CD002E08CC0007
:101DC8004330CB006230CA000030C9000030C80080
:101DD8000A128A1166230A128A15831203134B0802
:101DE800DF004A08DE004908DD004808DC000A1266
:101DF8008A150D270A128A15831203135D088316A4
:101E08000313A300831203135C0883160313A200B1
:101E180008000310831203135E0D5F0DE5006508CB
:101E2800031D172F182F212F0030DF000030DE0090
:101E38000030DD000030DC00842F5C08E0005D0825
:101E4800E1005E08E2005F08E3001F300310E30CC6
:101E5800E20CE10CE00CFF3E031D2A2F6008E400B1
:101E6800DE17FF30DC05FF30DD05FF30DE05003012
:101E7800DF059630E502E51F422F432F5D2F6508E9
:101E8800803A973E0318492F4A2F4B2F182F0130BD
:101E98000310DF0CDE0CDD0CDC0CFF3E031D4C2FA9
:101EA8000130E0006008E507031D5B2F5C2F4B2F16
:101EB800742F20306502031C622F632F6F2F182F99
:101EC8000130E0000310DC0DDD0DDE0DDF0DE00B51
:101ED800662F0130E5026508031D732F742F642FE8
:101EE80064080319782F792F842FDC09DD09DE09AE
:101EF800DF09DC0A0319DD0A0319DE0A0319DF0A00
:101F08000800831603131E0883120313E600063025
:101F18000310E60CFF3E031D8C2F1E08E700E801A6
:101F28000310E70DE80D0310E70DE80D66086707D5
:101F3800E9000030031801306807EA006908FB006F
:101F48006A08FC007B08A0007C08A100A201A3018C
:101F580000300A128A11BE250A128A158312031349
:101F68002308B5002208B4002108B3002008B200F5
:101F78003E30B100BD30B0007030AF00A430AE00CC
:101F88000A128A1121200A128A15831203133108B2
:101F9800CF003008CE002F08CD002E08CC004730E7
:101FA800CB007E30CA000C30C9000030C8000A12CD
:101FB8008A1166230A128A15831203134B08DF005D
:101FC8004A08DE004908DD004808DC000A128A15C4
:101FD8000D270A128A15831203135D08831603134B
:101FE800A100831203135C0883160313A0007B0867
:081FF8008312031388000800A6
:08400000FF3FFF3FFF3FFF3FC0
:04400E00D420FF3F7C
:00000001FF
